{
  "contractName": "Bank",
  "abi": [
    {
      "inputs": [
        {
          "internalType": "address",
          "name": "",
          "type": "address"
        }
      ],
      "name": "balances",
      "outputs": [
        {
          "internalType": "uint256",
          "name": "",
          "type": "uint256"
        }
      ],
      "stateMutability": "view",
      "type": "function",
      "constant": true
    },
    {
      "inputs": [
        {
          "internalType": "address",
          "name": "",
          "type": "address"
        }
      ],
      "name": "bankLoans",
      "outputs": [
        {
          "internalType": "uint256",
          "name": "",
          "type": "uint256"
        }
      ],
      "stateMutability": "view",
      "type": "function",
      "constant": true
    },
    {
      "inputs": [],
      "name": "deposit",
      "outputs": [],
      "stateMutability": "payable",
      "type": "function",
      "payable": true
    },
    {
      "inputs": [
        {
          "internalType": "uint256",
          "name": "amount",
          "type": "uint256"
        }
      ],
      "name": "loan",
      "outputs": [],
      "stateMutability": "nonpayable",
      "type": "function"
    },
    {
      "inputs": [],
      "name": "repayment",
      "outputs": [
        {
          "internalType": "uint256",
          "name": "",
          "type": "uint256"
        }
      ],
      "stateMutability": "payable",
      "type": "function",
      "payable": true
    },
    {
      "inputs": [
        {
          "internalType": "uint256",
          "name": "_amount",
          "type": "uint256"
        }
      ],
      "name": "withdraw",
      "outputs": [],
      "stateMutability": "nonpayable",
      "type": "function"
    },
    {
      "inputs": [],
      "name": "getBal",
      "outputs": [
        {
          "internalType": "uint256",
          "name": "",
          "type": "uint256"
        }
      ],
      "stateMutability": "view",
      "type": "function",
      "constant": true
    }
  ],
  "bytecode": "0x6080604052600560025566470de4df82000060035534801561002057600080fd5b50610ac3806100306000396000f3fe6080604052600436106100705760003560e01c80632e1a7d4d1161004e5780632e1a7d4d146100fb578063365a5306146101245780639ca8f0a31461014d578063d0e30db01461018a57610070565b806317cd802d1461007557806325caa2621461009357806327e235e3146100be575b600080fd5b61007d610194565b60405161008a9190610643565b60405180910390f35b34801561009f57600080fd5b506100a86102b3565b6040516100b59190610643565b60405180910390f35b3480156100ca57600080fd5b506100e560048036038101906100e091906106c1565b6102bb565b6040516100f29190610643565b60405180910390f35b34801561010757600080fd5b50610122600480360381019061011d919061071a565b6102d3565b005b34801561013057600080fd5b5061014b6004803603810190610146919061071a565b610459565b005b34801561015957600080fd5b50610174600480360381019061016f91906106c1565b6105bb565b6040516101819190610643565b60405180910390f35b6101926105d3565b005b6000600160003373ffffffffffffffffffffffffffffffffffffffff1673ffffffffffffffffffffffffffffffffffffffff16815260200190815260200160002054341115610218576040517f08c379a000000000000000000000000000000000000000000000000000000000815260040161020f906107a4565b60405180910390fd5b34600160003373ffffffffffffffffffffffffffffffffffffffff1673ffffffffffffffffffffffffffffffffffffffff168152602001908152602001600020600082825461026791906107f3565b92505081905550600160003373ffffffffffffffffffffffffffffffffffffffff1673ffffffffffffffffffffffffffffffffffffffff16815260200190815260200160002054905090565b600047905090565b60006020528060005260406000206000915090505481565b806000803373ffffffffffffffffffffffffffffffffffffffff1673ffffffffffffffffffffffffffffffffffffffff168152602001908152602001600020541015610354576040517f08c379a000000000000000000000000000000000000000000000000000000000815260040161034b90610873565b60405180910390fd5b806000803373ffffffffffffffffffffffffffffffffffffffff1673ffffffffffffffffffffffffffffffffffffffff16815260200190815260200160002060008282546103a291906107f3565b9250508190555060003373ffffffffffffffffffffffffffffffffffffffff16826040516103cf906108ea565b60006040518083038185875af1925050503d806000811461040c576040519150601f19603f3d011682016040523d82523d6000602084013e610411565b606091505b5050905080610455576040517f08c379a000000000000000000000000000000000000000000000000000000000815260040161044c9061094b565b60405180910390fd5b5050565b8060025447610468919061099a565b116104a8576040517f08c379a000000000000000000000000000000000000000000000000000000000815260040161049f90610a17565b60405180910390fd5b600354816104b69190610a37565b600160003373ffffffffffffffffffffffffffffffffffffffff1673ffffffffffffffffffffffffffffffffffffffff16815260200190815260200160002060008282546105049190610a37565b9250508190555060003373ffffffffffffffffffffffffffffffffffffffff1682604051610531906108ea565b60006040518083038185875af1925050503d806000811461056e576040519150601f19603f3d011682016040523d82523d6000602084013e610573565b606091505b50509050806105b7576040517f08c379a00000000000000000000000000000000000000000000000000000000081526004016105ae9061094b565b60405180910390fd5b5050565b60016020528060005260406000206000915090505481565b346000803373ffffffffffffffffffffffffffffffffffffffff1673ffffffffffffffffffffffffffffffffffffffff16815260200190815260200160002060008282546106219190610a37565b92505081905550565b6000819050919050565b61063d8161062a565b82525050565b60006020820190506106586000830184610634565b92915050565b600080fd5b600073ffffffffffffffffffffffffffffffffffffffff82169050919050565b600061068e82610663565b9050919050565b61069e81610683565b81146106a957600080fd5b50565b6000813590506106bb81610695565b92915050565b6000602082840312156106d7576106d661065e565b5b60006106e5848285016106ac565b91505092915050565b6106f78161062a565b811461070257600080fd5b50565b600081359050610714816106ee565b92915050565b6000602082840312156107305761072f61065e565b5b600061073e84828501610705565b91505092915050565b600082825260208201905092915050565b7f596f7520686176652070616964206d6f7265207468616e207265717569726564600082015250565b600061078e602083610747565b915061079982610758565b602082019050919050565b600060208201905081810360008301526107bd81610781565b9050919050565b7f4e487b7100000000000000000000000000000000000000000000000000000000600052601160045260246000fd5b60006107fe8261062a565b91506108098361062a565b92508282101561081c5761081b6107c4565b5b828203905092915050565b7f4e6f7420656e6f75676820657468657200000000000000000000000000000000600082015250565b600061085d601083610747565b915061086882610827565b602082019050919050565b6000602082019050818103600083015261088c81610850565b9050919050565b600081905092915050565b7f53656e7400000000000000000000000000000000000000000000000000000000600082015250565b60006108d4600483610893565b91506108df8261089e565b600482019050919050565b60006108f5826108c7565b9150819050919050565b7f6661696c656420746f2073656e64204554480000000000000000000000000000600082015250565b6000610935601283610747565b9150610940826108ff565b602082019050919050565b6000602082019050818103600083015261096481610928565b9050919050565b7f4e487b7100000000000000000000000000000000000000000000000000000000600052601260045260246000fd5b60006109a58261062a565b91506109b08361062a565b9250826109c0576109bf61096b565b5b828204905092915050565b7f4e6f7420656e6f75676820657468657220696e2074686520636f6e7472616374600082015250565b6000610a01602083610747565b9150610a0c826109cb565b602082019050919050565b60006020820190508181036000830152610a30816109f4565b9050919050565b6000610a428261062a565b9150610a4d8361062a565b9250827fffffffffffffffffffffffffffffffffffffffffffffffffffffffffffffffff03821115610a8257610a816107c4565b5b82820190509291505056fea26469706673582212209a7a45214b68a0ad19c4793e115f114f6edb64f161f5a31691a1af9ad259729a64736f6c634300080e0033",
  "immutableReferences": {},
  "source": "pragma solidity ^0.8.0;\n\n\ncontract Bank{\n    \n    mapping(address => uint) public balances;\n    mapping(address => uint) public bankLoans;\n    uint256 safetyMargin = 5;\n    uint256 interest = 0.02 ether;\n\n    function deposit() public payable{\n        balances[msg.sender] += msg.value; \n    }\n\n    function loan(uint256 amount) public {\n        require(address(this).balance/safetyMargin > amount, \"Not enough ether in the contract\");\n        bankLoans[msg.sender] += amount+interest;\n        (bool sent,) = msg.sender.call{value: amount}(\"Sent\");\n        require(sent, \"failed to send ETH\");\n    }\n\n    function repayment() public payable returns (uint256){\n        require(msg.value <= bankLoans[msg.sender], \"You have paid more than required\");\n        bankLoans[msg.sender] -= msg.value;\n        return bankLoans[msg.sender];\n    }\n     \n    function withdraw(uint _amount) public{\n        require(balances[msg.sender] >= _amount, \"Not enough ether\");\n        balances[msg.sender] -= _amount;\n        (bool sent,) = msg.sender.call{value: _amount}(\"Sent\");\n        require(sent, \"failed to send ETH\");\n\n        \n    }\n\n    function getBal() public view returns(uint){\n        return address(this).balance;\n    }\n\n\n\n\n}",
  "sourcePath": "/home/thomas/Documents/BlockChain/Bank/contracts/Bank.sol",
  "compiler": {
    "name": "solc",
    "version": "0.8.14+commit.80d49f37.Emscripten.clang"
  },
  "schemaVersion": "3.4.7",
  "updatedAt": "2022-05-25T13:07:46.749Z",
  "networkType": "ethereum",
  "devdoc": {
    "kind": "dev",
    "methods": {},
    "version": 1
  },
  "userdoc": {
    "kind": "user",
    "methods": {},
    "version": 1
  }
}